:020000040800F2
:10000000000400201B020008290200082510000837
:100010002D0200082F020008310200080000000035
:100020000000000000000000000000003302000893
:100030003502000800000000A7020008C1210008E6
:100040003B0200083B0200083B0200083B0200089C
:100050003B0200083B0200083B0200083B0200088C
:100060003B0200083B0200083B0200083B0200087C
:100070003B0200083B0200083B0200083B0200086C
:100080003B0200083B0200083B0200083B0200085C
:100090003B0200083B0200083B0200083B0200084C
:1000A0003B0200083B0200083B0200083B0200083C
:1000B0003B0200083B0200083B0200083B0200082C
:1000C0003B0200083B0200083B020008891B0008B5
:1000D000C51B00083B0200083B0200083B02000869
:1000E0003B0200083B0200083B0200083B020008FC
:1000F0003B0200083B0200083B0200083B020008EC
:100100003B0200083B0200083B0200083B020008DB
:10011000592200089D2200083B0200083B0200080B
:100120003B0200083B0200083B0200083B020008BB
:1001300000F002F800F047F80AA090E8000C8244B2
:100140008344AAF10107DA4501D100F03CF8AFF28F
:10015000090EBAE80F0013F0010F18BFFB1A43F0A5
:1001600001031847B0550000D0550000103A24BFD5
:1001700078C878C1FAD8520724BF30C830C144BF0C
:1001800004680C607047000000230024002500264E
:10019000103A28BF78C1FBD8520728BF30C148BFEA
:1001A0000B607047642900F02581782900F05C819C
:1001B000732900F07E83002070471FB500F059FAC4
:1001C0001FBD10B510BD00F0C1FB1146FFF7F5FFD4
:1001D00003F0A0FD00F0DFFB03B4FFF7F2FF03BC68
:1001E00003F05DFB0B49D1F800C04A685CF8043BA2
:1001F0001068184442F8040B8C4528BFA1F1DC0CB0
:100200008A4228BFA1F1DC02C1F800C04A6020F098
:10021000004070476C1D002070470B4880470B4919
:1002200081F308880A480047FEE7FEE7FEE7FEE79D
:10023000FEE7FEE7FEE7FEE7FEE7FEE705480649C4
:10024000064A074B7047000019020008D833002007
:1002500031010008D81D0020D8330020D823002009
:10026000D8230020EFF3108072B6704780F3108817
:10027000704724484FF000010170002080F3098886
:100280001D480121017020484FF08051016062B685
:10029000FEE71D484FF08051016070471A484FF04B
:1002A000805101607047EFF3098028B1203880E861
:1002B000F00F12490968086000B50A4880475DF8E8
:1002C00004EB0B480B490A7802700C480C490A6889
:1002D0000260106890E8F00F203080F309884EF03B
:1002E000040E7047311400086D1100087E000020D4
:1002F000800000208100002083000020A00000205A
:10030000A800002020ED00E004ED00E070470000B0
:100310000FB4044910B503AA029800F0CFFA10BC3C
:100320005DF814FB180000200FB41CB5084B06AA9A
:100330007B4469460090059800F091FA044600203D
:10034000694600F09FFA20461CBC5DF814FB0000D3
:100350005105000070B5044685690068C10601D5E5
:10036000302600E02026C00707D070BDD4E9012167
:1003700030469047206A401C20626D1EF6D570BD45
:1003800070B5044685690078C00707D170BDD4E90F
:10039000012120209047206A401C20626D1EF6D566
:1003A00070BD70B50C460546012A05D02878800638
:1003B00000D5EA69002302E0012305E05B1C9342BB
:1003C00002D2E05C0028F9D1A869E618C01AA86139
:1003D000286A184428622846FFF7BCFF04E0D5E9E4
:1003E000012114F8010B9047B442F8D32846FFF7D7
:1003F000C7FF70BD2DE9F04106460024106875293D
:10040000314615A510D0AFF30080002802DA404233
:1004100012A507E031688A0701D511A502E0490756
:1004200004D510A5012401E0AFF3008000210A23C8
:1004300006F1240707E0B0FBF3F203FB12003030B3
:1004400078541046491C0028F5D123462A463046E8
:10045000BDE8F04100F0A5B9000000002D0000004B
:100460002B0000002000000070B504460D46214618
:100470001068AFF300802188090502D50F4A7A443D
:1004800002E00E4A7A440E32002104F1240305E012
:1004900000F00F060009965D5E54491C0028F7D154
:1004A00020780023000704D5702D02D009B1022363
:1004B00011322046BDE8704000F073B99F50000033
:1004C0002DE9F05F894604464FF0000ADFF874B169
:1004D000FB44C0F820A02046E1688847002874D07B
:1004E000252806D0D4E901219047206A401C2062CB
:1004F000F1E700265F462046E16888472028054648
:1005000007DB312D05D2781910F8200C08B106430D
:10051000F1E7B00701D526F00406C4F81CA00027B7
:10052000C4F818A02A2D09D0284603F0B1F938B331
:1005300004EB8708303DC8F8185019E059F8041B3F
:10054000204604EB87029161E1688847012F054648
:1005500018D1E069002820DA26F020061DE0D8F83E
:10056000180000EB800005EB40003038C8F8180098
:100570002046E1688847054603F08AF90028EED155
:10058000012F0AD02E2D08D12046E16888477F1C14
:100590000546022F46F02006C4DBA069002803DAD6
:1005A000404246F00106A061F00701D026F0100697
:1005B0006C2D0BD0682D09D04C2D39D06A2D35D03B
:1005C000742D35D07A2D33D016E038E0E1682F460F
:1005D00020468847B842054609D16C2F26D04FF4F3
:1005E0008060E168064320468847054604E06C2F9A
:1005F0001AD04FF4807006430DB3A5F141001928BD
:1006000002D8203546F400664A4629462046266030
:100610004E46FFF7C7FD80B101280BD0F61D26F02E
:10062000070000F1080956E74020E4E78020D8E7FA
:100630000020D6E706F104094DE7284652E7206A74
:10064000BDE8F09F755000000B4910B5A1F17C0288
:100650000A4CC2E93712372106E000EB104342F89A
:100660002130074B00FB03400B1EA1F10101F4DC1C
:1006700010BD0120E8E700000C1D0020E119D6663E
:10068000CD0D010010B5431C02E010F8011B71B143
:100690008107FAD14FF0013202C88C1A8C4314EA58
:1006A000C211F9D0C01A0A0603D0C01E10BDC01A6C
:1006B00010BD0A0401D0801E10BD0902FCD0401EEE
:1006C00010BD032A40F2308010F0030C00F01580BA
:1006D00011F8013BBCF1020F624498BF11F801CB45
:1006E00000F8013B38BF11F8013BA2F1040298BFAA
:1006F00000F801CB38BF00F8013B11F0030300F014
:10070000EF80083AC0F0088051F8043B083A51F8ED
:1007100004CBA0E80810F5E7121D5CBF51F8043BBC
:1007200040F8043BAFF30080D20724BF11F8013B2F
:1007300011F801CB48BF11F8012B24BF00F8013B91
:1007400000F801CB48BF00F8012B70474FF00002C2
:1007500000B5134694469646203922BFA0E80C50B7
:10076000A0E80C50B1F12001BFF4F7AF090728BF92
:10077000A0E80C5048BF0CC05DF804EB890028BF0E
:1007800040F8042B08BF704748BF20F8022B11F037
:10079000804F18BF00F8012B7047704770477047B3
:1007A00070472DE9F0470D4699469246044600F100
:1007B00024080168880604D5E06921F01001216051
:1007C00000E00120A84201DD471B00E00027A169ED
:1007D0007A1902EB0900081AA0612078C00602D439
:1007E0002046FFF7B7FD002608E0D4E901211AF8FA
:1007F00006009047206A401C761C20624E45F4DBC0
:100800002078C0060AD52046FFF7A4FD06E0D4E90B
:10081000012130209047206A401C2062381EA7F139
:100820000107F4DC07E0D4E9012118F8050090473E
:10083000206A401C2062281EA5F10105F3DC204639
:10084000FFF79EFD2078000602D50220BDE8F08764
:100850000120FBE701694A1C02610878704700B576
:100860008FB0CDE901310021059105497944CDE9E9
:10087000031011466846FFF723FE0FB000BD0000CD
:10088000E5FFFFFF0A6802F8010B0A60704710B528
:10089000436913B1AFF3008001E0FFF782FD01204F
:1008A00010BD127800F124010A7000224A70012262
:1008B000EDE711684FF0FF32E9E70000074B70B534
:1008C0000D467B44FFF7CBFF0446284600F03AF87C
:1008D00010B14FF0FF3070BD204670BD673300008F
:1008E00010B5203AC0F00B80B1E81850203AA0E8CB
:1008F0001850B1E81850A0E81850BFF4F5AF5FEAFF
:10090000027C24BFB1E81850A0E8185044BF18C9B1
:1009100018C0BDE810405FEA827C24BF51F8043B58
:1009200040F8043B08BF7047D20728BF31F8023BAC
:1009300048BF11F8012B28BF20F8023B48BF00F840
:10094000012B7047007B00F080007047754600F077
:1009500029F8AE4605006946534620F00700854653
:1009600018B020B5FFF76AFCBDE820404FF0000644
:100970004FF000074FF000084FF0000B21F0070187
:10098000AC46ACE8C009ACE8C009ACE8C009ACE8CA
:10099000C0098D4670470446AFF300802046FFF73C
:1009A0001BFC000000487047741D002010B5012199
:1009B000482000F065FA012300225902034800F0A4
:1009C000B7FA03490120086010BD00000020014073
:1009D000A40124422DE9F041FF22FF234FF0010C36
:1009E0004FF0A008002516E0445D624000241E463A
:1009F00017465B085208F60701D042F08002FE0756
:100A000003D083EA080382EA0C02641CA4B2082C17
:100A1000EDD36D1CADB28D42E6D342EA0320BDE8B2
:100A2000F081000070B51849C0EBC00201EB8204F0
:100A3000164DA179002907D0012918D0022916D016
:100A400013A06860002070BDC1B2A86802F024FA4B
:100A5000E17D012905D0172813D010A0686000207F
:100A600070BD14280DD00FA06860002070BDC1B209
:100A7000A86802F011FA222803D008A068600020BC
:100A800070BD012070BD0000780900202C000020FE
:100A9000CEDED0A7B5C4D0ADD2E92100CEB4C1AC72
:100AA000BDD32100B7FECEF1B6CBCEB4C6F4B6AFFF
:100AB000BCE0BFD821000000F8B505460E4600276F
:100AC0000097094803F0DEF8074C3C3CA570A6638C
:100AD00006486063684603F041FA684603F04CFA42
:100AE00003F0F4FB2770F8BD740000207856341230
:100AF0002DE9FC476B4C2078062835D0032194F96A
:100B0000020003F0CDF8C0B2002702281AD094F9F1
:100B1000020002F0DBFF64A0FFF7FAFB022003F003
:100B2000ABFFA07000974421ADF80410694602F0B5
:100B3000B7FE38B104F00AF8024640F2DF215F4800
:100B4000FFF7E6FB012503F033FA564E2178F61D38
:100B50004FF0030AA946A6F10408052973D2DFE87D
:100B600001F0060F26496A000520BDE8FC873770B2
:100B70007770B770F77003F031FC84F8009062E092
:100B8000022803D002F06AFF05465CE04CA0FFF7A4
:100B9000BFFBA06B017C3170417C7170817CB170B6
:100BA000C07CF07003F00CFD022020704BE00528A3
:100BB00005D0062816D002F051FF054643E046A0B6
:100BC000FFF7A6FB02F0E2FE30B1606A804703F057
:100BD0007DFB84F800A036E003F078FBE06A8047F4
:100BE000277030E042A0FFF793FB03F06FFB84F81F
:100BF000009028E00425A069411C24D0E169B1EBF4
:100C0000500F20D940A0FFF783FB307888F8000010
:100C1000707888F80100B07888F80200F07888F8D9
:100C20000300606B401C606303F0CAFC03F04EFBE2
:100C30000420207007E00425052806D0062828D0C7
:100C400002F00CFF054628468FE7677098F8000011
:100C5000317888420ED198F801007178884209D124
:100C600098F80200B178884204D198F80300F1782E
:100C7000884206D00325A06A80472BA0FFF748FBD7
:100C800002E02DA0FFF744FB03F020FB84F800A056
:100C9000D9E72EA0FFF73CFB03F018FB84F8009087
:100CA000D1E700003800002044484350B3F5CABCE7
:100CB000BBAF736F636B6574210D0A00CC560008DF
:100CC0003E205265636569766520444843505F4F16
:100CD000464645520D0A00003E205265636569761E
:100CE0006520444843505F41434B0D0A000000001B
:100CF0003E205265636569766520444843505F4EE7
:100D000041434B0D0A0000003E204D61696E746145
:100D1000696E73207468652049502061646472654F
:100D20007373200D0A0000003E4950206368616E15
:100D30006765642E0D0A00003E49502069732063E8
:100D40006F6E74696E7565642E0D0A003E205265E3
:100D5000636569766520444843505F4E41434B2CA0
:100D6000204661696C656420746F206D61696E74E2
:100D700061696E2069700D0A0000000010B5044C16
:100D800094F9020002F0A2FE0620207010BD0000BF
:100D9000380000200248C169491CC1617047000049
:100DA0003800002070B504460E461546012120206B
:100DB00000F066F800202060A660206840F48050B3
:100DC0002060206840EA85202060206840EA0520F5
:100DD0002060206840F080002060206840F0100013
:100DE000206070BD2DE9F0410446DDF818800E4604
:100DF00017461D460121202000F042F80020206007
:100E0000E660A760C4F80480206840F48050206049
:100E1000206840EA85202060206840EA05202060A4
:100E2000206840F080002060206840F001002060D1
:100E3000BDE8F081036823F001030360C1604260F4
:100E4000016841F00101016070470000044900E0C1
:100E5000491E4268002A01D00029F9D170470000DC
:100E6000FFFF0F0001B505E0002000BF401CC0B22D
:100E70000528FAD3BDF80000411E0091F4D208BD48
:100E800010B5184A84064FF001030CD52038C0B2C3
:100E900021B1516983401943516110BD51698340AB
:100EA0009943516110BD44060CD54038C0B221B100
:100EB000916983401943916110BD916983409943C1
:100EC000916110BD0406FCD58038C0B221B1D16952
:100ED00083401943D16110BDD16983409943D161E9
:100EE00010BD000000100240104A43064FF00101FF
:100EF0000CD54038D36881400B43D36000BF00BF9E
:100F000000BF00BFD0688843D06070470306FCD59F
:100F10008038136981400B43136100BF00BF00BFDD
:100F200000BF106988431061704700000010024044
:100F3000FFB500210F2402270126BDF80420D207A7
:100F400066D0082926D203688A0004FA02F5AB436A
:100F500003609DF8083007EB810503F00303AB4005
:100F600005682B4303609DF80830082B3CD09DF8A2
:100F70000830092B38D09DF808300A2B34D09DF862
:100F800008300E2B30D003689DF80C5095402B4351
:100F9000036029E04568A1F108021346920004FAB3
:100FA00002FC25EA0C0545609DF8085007EB830319
:100FB00005F003059D4043681D4345609DF80830DA
:100FC000082B11D09DF80830092B0DD09DF8083062
:100FD0000A2B09D09DF808300E2B05D043689DF8E8
:100FE0000C5095402B4343609DF808200A2A04D0FA
:100FF0009DF808200E2A06D00AE0C26806FA01F31E
:101000009A43C26004E0C26806FA01F31A43C26060
:10101000BDF8042052080192491CC9B210298CD392
:10102000FFBD000010B505490120087004A0FFF7BE
:101030006FF9BDE8104001F087B8000008000020FB
:101040000D0A2D2D2D2D2D2D2D2D2D2D2D2D2D2D13
:101050002D2D2D4552524F52202D2D2D2D2D2D2D24
:101060002D2D2D2D2D2D2D2D2D2D0D0A4861726428
:101070004661756C745F48616E646C65720D0A0040
:10108000054A45F255531360506091605800106056
:101090004CF6CC40106070470030004010B5054859
:1010A000806801F011FFC00701D0012010BD0020B1
:1010B00010BD00002C00002007498A6942F001029F
:1010C0008A6141060548426822F0E0624260426857
:1010D0000A434260704700000010024000000140D7
:1010E00010B501214620FFF7CBFE01230022082185
:1010F0000348FFF71DFF03490020086010BD0000F2
:10110000001801408C01234200F01F0301229A4085
:101110004009800000F1E020002902D0C0F8002141
:101120007047C0F88021704700F00F00092802D8EE
:101130003030C0B270473730C0B2704710B500F0E1
:1011400012F800F069FA00F077FA00F089FA00F07E
:1011500041FA00F01DFA00F0ADFA00F0C5FABDE862
:10116000104000F001B870477047000070B5134C94
:10117000E079012821D1FFF775F80546A17809B17A
:10118000491EA170A07898B9E07888B900F0F4FA07
:101190006179207981420BD0094850F82110E16231
:1011A000486A401C4862E068401CE060FFF776F83F
:1011B0002846BDE87040FFF759B870BD7C0000209C
:1011C000F80B002010B5094CE07900280CD100F094
:1011D000D3FA60792071064951F82000E06260621C
:1011E000BDE81040FFF745B810BD00007C000020AE
:1011F000F80B002010B5022000F01CF9FFF732F8C0
:10120000084C00212162FFF731F8642000F012F948
:10121000FFF728F8216A616101216170BDE8104083
:10122000FFF724B87C000020704700002DE9FE4342
:1012300005460E4690461C46FFF714F81A490978F1
:1012400021B1FFF713F83C20BDE8FE83174F57F894
:10125000241019B1FFF70AF82820F5E7012147F813
:101260002410FFF703F8002342463146284600F0D9
:101270006AF801460025009501952B462A4620462E
:10128000029500F0BFFA06463EB1FEF7EBFF47F8C5
:101290002450FEF7EBFF3046D6E7054800780128DA
:1012A000F9D100F045FAF6E77E000020F80B0020A7
:1012B00083000020704770472DE9F04105460F4636
:1012C00014461D480078002803D012202070BDE885
:1012D000F081FEF7C7FF0646FF2D02D117480068D0
:1012E000857F174850F825504FF0430865B1012D10
:1012F00010D0384600F07CFA0F2811D93046FEF79E
:10130000B5FF41202070E2E73046FEF7AFFF84F8DA
:101310000080DCE73046FEF7A9FF84F80080D6E7BE
:10132000394605F1380000F055FA3046FEF79EFFC9
:1013300000202070CBE700007E000020A0000020ED
:10134000F80B002070474FF08073136042F8040CD4
:10135000083A6FF001001060A2F130004FF0123334
:10136000C3624FF0033282624FF002324262521087
:101370000262C1614FF01131816111014161591067
:101380000161D100C1604FF0073181604FF006313B
:1013900041604FF0053140F8041991000160704739
:1013A00070B50446FEF75EFF01461D48FF2C05D0D0
:1013B0000068807FA04205D1012504E00068847F99
:1013C000012500E00025174850F8240058B10128F5
:1013D0000ED090F82020144C90F82160A35CB34309
:1013E000A35453B10FE00846FEF740FF482070BDFC
:1013F0000846FEF73BFF432070BD0C4A90F82240A0
:101400001378A3431370027F42F008020277084664
:10141000FEF72CFF012D01D100F08AF9002070BDEC
:10142000A0000020F80B002098000020820000207F
:101430007047000070B504461048007800281BD1A2
:10144000002C19D0FEF70EFF0D49096891F82020F5
:101450000C4D91F82160AB5CB343AB542BB90A4AF5
:1014600091F822501378AB4313704C83FEF7FEFEC5
:10147000BDE8704000F05CB970BD00007E00002047
:10148000A0000020980000208200002070B5164CBB
:101490002478002C01D0552070BD4FF47A7463433A
:1014A000B3FBF4F34FF461646043C1EB011100EB53
:1014B0008100104400EB4001C1EBC01003EBC00001
:1014C000040C80B2FFF7B6FF4FF4004507E0284652
:1014D000FFF7B0FF2846FFF7ADFF641EA4B2002C53
:1014E000F5D1002070BD00007E0000202DE9F04104
:1014F000FEF7B8FE254D696B491C6963FEF7B6FE21
:10150000E87901283FD1687A0126002748B10128EF
:1015100009D0022809D001206F72002833D02C6B2B
:101520002EE00120F9E70020F7E701206E72F4E7D2
:10153000FEF798FE618B01B3491E0904090C618313
:101540001BD1217F11F0370F04D021F03701217713
:10155000667700E06777217F09070ED494F82210A0
:10156000AA791143A971094A94F820101C3294F801
:1015700021C0535C43EA0C0353546468FEF776FEC3
:10158000A07F1928D4D1BDE8F08100007C000020A4
:1015900010B5E0210D4800F0C1F80C4800F11C0224
:1015A000002100233F24037042608472C3721C3008
:1015B0001C32491C89B20729F5D303704360847239
:1015C000C37203490148086010BD0000B013002039
:1015D000B400002010B5A0210D4800F09FF80C4881
:1015E00000F11402002100233F2403704260C47301
:1015F000037414301432491C89B20729F5D30370DF
:101600004360C473037403490148086110BD0000BE
:10161000580A00207C0000200648002141638170A8
:10162000C1700172C171C16001628161416141702B
:10163000704700007C000020084B00229A7103F1E3
:101640001C01002001F8012B401CC0B20428F9D372
:101650001A715A71DA625A62704700007C000020E9
:1016600010B54FF4EA61114800F058F80F486821AE
:10167000683800F053F80D4800F1480200210024BA
:101680003F23426080F8383080F839404830483293
:10169000491CC9B21929F4D3446080F8383080F865
:1016A0003940034804630149816210BD600C002089
:1016B0007C00002008B51923054A00210548FFF7E2
:1016C000B5FD6A4604A11920FFF7F6FD08BD00002C
:1016D000F40B0020C518000875432F4F532D4949BE
:1016E0002049646C6500000008B51823054A0021F4
:1016F0000548FFF79BFD6A4604A11820FFF7DCFDB3
:1017000008BD0000740B0020E118000875432F4F3E
:10171000532D49492053746174000000002203E0F6
:1017200000F8012B491E89B20029F9D17047000049
:1017300070B5FEF797FD05460D4CA07898B9E07896
:1017400088B900F019F86179207981420BD00948F5
:1017500050F82110E162486A401C4862E068401C71
:10176000E060FEF796FD2846BDE87040FEF77EBDBE
:101770007C000020F80B00200649054A8879105C9F
:1017800001F11C031B5CD25C02EBC0004871704786
:10179000215400087C000020F0B44FF47A72B0FBB2
:1017A000F2F102FB11033C24B1FBF4F24FF461654A
:1017B000B1FBF5F604FB121205FB1611B1FBF4F1B7
:1017C000034CC9B2B0FBF4F0F0BCC0B2FFF75EBE90
:1017D00080EE3600002204E000F8013B491C521C58
:1017E000D2B20B78002BF7D1002101701046704760
:1017F0000146002002E0491C401CC0B20A78002AC1
:10180000F9D170472DE9F04106460D46FEF72AFD55
:101810002A4FBC6A002C4CD06168B962FEF726FDE5
:101820002560A6770025257765776583F00884F81D
:10183000200006F00701E177012303FA00F284F8A3
:10184000222003FA01F284F82120E5602561656118
:101850006562E562A562256365633F2084F8380010
:1018600084F839502046FFF7DFFC2046FFF722FDC1
:10187000FEF7F8FC0146124840F82640386B6060DD
:10188000A56000B184603C632034BA79A07810432D
:10189000B8710A4A20781C326478135C23431354CD
:1018A000387A401C38720846FEF7E0FC0020BDE89C
:1018B000F081FEF7DBFC4220F9E700007C0000200D
:1018C000F80B0020054CFEF7CDFC216A491C216273
:1018D000FEF7CCFCFFF7EFFCF5E700007C000020F2
:1018E000134C02E0C820FFF7A5FD60780028F9D06E
:1018F00060696421B0FBF1F06061002518B92570C2
:10190000FF20FFF74DFDFEF7ADFC216AA1612562C6
:10191000FEF7ACFCD4E90510B0FBF1F0C0F16400B7
:101920002070FFF70FFD6420FFF784FDEBE7000058
:101930007C00002010B5FEF755FC4EF6602190FBB0
:10194000F1F201FB120000F5FA6084B200F004FC31
:10195000FEF77AFE00221348C2EBC20100EB8101C0
:10196000898AA14203D0521CD2B2082AF4D3082A91
:1019700012D221460CA0FEF7CBFCFEF733FC4FF44D
:101980007A7190FBF1F201FB1200204484B22146EF
:101990000DA0FEF7BDFC03E0214611A0FEF7B8FC48
:1019A000204610BD780900202A2A2AC9FAB3C9C1E5
:1019B000CBCFE0CDACB5C4CBE6BBFAB6CBBFDA3A01
:1019C00025640D0A000000002A2A2AD6D8D0C2C9F0
:1019D000FAB3C9B6CBBFDA3A25640D0A000000009D
:1019E0002A2A2ACBE6BBFAC9FAB3C9B6CBBFDA3A80
:1019F00025640D0A000000001FB50020039002902E
:101A0000019005E00023032219461846FFF73EFD2A
:101A100001F0E8FD0028F5D108E030A0FEF778FCE1
:101A20000023012219461846FFF730FDFFF736FB69
:101A30000028F2D02EA0FEF76BFC03A802F08EFA6D
:101A400002A802F0A7FA01A802F096FA3049FF2096
:101A5000FFF732F8FFF74CF804460023012219463D
:101A60001846FFF713FDFFF795F9042CF2D1FFF7A5
:101A700085F928A0FEF74CFC2748C17800918378AF
:101A80004278017825A0FEF743FC2A48C1780091EE
:101A900083784278017828A0FEF73AFC2C48C17878
:101AA00000918378427801782AA0FEF731FC2F4814
:101AB000C17800918378427801782DA0FEF728FC48
:101AC00014A0FEF725FC144802F048FA204802F062
:101AD00061FA184802F050FA00F064FEB5C8B4FD8F
:101AE000CDF8C2E7C1ACBDD32E2E2E0D0A000000EA
:101AF000B3F5CABCBBAF44484350A3ACBFAACABCF1
:101B0000BDF8D0D0BBF1C8A149502E2E2E0D0A0031
:101B1000901400200D0A00003F000020202020200B
:101B2000202049503A25642E25642E25642E2564F4
:101B30000D0A0000430000202020CDF82020B9D855
:101B40003A25642E25642E25642E25640D0A000096
:101B500047000020D7D3CDF8D1DAC2EB3A25642E66
:101B600025642E25642E25640D0A00004B000020FC
:101B70002020202020444E533A25642E25642E2513
:101B8000642E25640D0A000070B50C4B0C4801242E
:101B90001A89002A0CD085895889411C89B259813B
:101BA0005E683554914207D1002058815C7003E093
:101BB000018921F0010101811C7070BD180900200C
:101BC0000030014070B50D4B01249A8A002A0DD0D7
:101BD0000B480588D88A411C89B2D9821E693554C0
:101BE000914209D10020D8825C7305E00448001FAF
:101BF000018821F0010101801C7370BD18090020CB
:101C00000C38004010B500220023022801D9012021
:101C100010BD254C54F820000024048084800C78EA
:101C20000CB14FF400624C780CB142F080028C7819
:101C30000CB142F00202CC780CB142F001020C79F6
:101C40001CB142F4007242F480724C790CB142F43F
:101C500080628C790CB142F40042CC790CB142F430
:101C600000520C7A0CB142F004024C7A04B1802389
:101C70008C7A0CB143F04003CC7A0CB143F02003D2
:101C80000C7B0CB143F004034C7B0CB143F002031A
:101C9000897B09B143F0010302808380018841F010
:101CA00040010180002010BD200000202DE9F74FE9
:101CB00005460E4601214020FFF7E2F800274FF0CD
:101CC000010840F202493DB16E4C012D54D0022D65
:101CD00077D00120BDE8FE8F01214C20FFF7D0F81E
:101CE00001214220FFF7CCF84C20FFF7FDF8307AB5
:101CF000654C90B10323022220212046FFF718F9FA
:101D000000230E2240212046FFF712F9032302226E
:101D100080212046FFF70CF9A1E000230E222021AC
:101D20002046FFF705F90323022240212046FFF752
:101D3000FFF800230E2280212046FFF7F9F8002348
:101D40000E2210212046FFF7F3F8504C2780A78081
:101D5000208840EA09002080A08840F04000A08050
:101D600001212320FFF7D0F9208840F04000208097
:101D7000474880F8028072E001218E20FFF780F84A
:101D800001214320FFF77CF88E20FFF7ADF8307A71
:101D90004FF400514FF4804A4FF4004B90B10323AD
:101DA00002222046FFF7C4F800230E2251462046A7
:101DB000FFF7BEF80323022259462046FFF7B8F882
:101DC0004DE02FE000230E222046FFF7B1F8032359
:101DD000022251462046FFF7ABF800230E22594657
:101DE0002046FFF7A5F800230E224FF4805120462D
:101DF000FFF79EF8274C2780201D0780218841EAA5
:101E000009012180018841F0400101800121242045
:101E1000FFF77AF9208840F0400020801C4880F8C5
:101E20000E801CE001218F20FFF72AF801214320BA
:101E3000FFF726F88F20FFF757F803230222082127
:101E40002046FFF775F800230E2210212046FFF7E9
:101E50006FF80323022220212046FFF769F8307A29
:101E600030B131462846FFF7CDFE08B1012031E7F9
:101E70002846029900F034F808B100202AE7022031
:101E800028E70000000C014000080140003001403C
:101E900018090020003800400022022801D9002043
:101EA00070470E4B53F8200005E0521CD2B2C82AEE
:101EB00001D90020704703899B07F6D58181002155
:101EC00005E0491CC9B2C82901D900207047028920
:101ED000D207F6D08089C0B27047000020000020F1
:101EE00070B505460C4600F009F90146022D01D9EE
:101EF000002070BD072C01D9002070BD0E4850F89D
:101F00002520108820F040001080108820F0380034
:101F1000108013880DB1012000E00020201A43EA50
:101F2000C0001080108840F040001080034830F856
:101F30001400B1FBF0F070BD20000020E853000851
:101F40002DE9F04705468846674E706810F00C0F83
:101F50000ED0306840F00100306030688007FCD55A
:101F6000706820F003007060706880088007FBD103
:101F7000306820F080703060921E02F00F0A5B4FD4
:101F8000012D20D0306840F00100306030688007BB
:101F9000FCD54FF480607060DFF85491D9F80000F0
:101FA00040F03200C9F80000B8F1010F2CD0012D2B
:101FB00057D0706820F00300706070688008800758
:101FC000FBD18DB367E0306820F48030306000BF13
:101FD000306820F48020306000BF306840F48030EA
:101FE000306000240CE0641C0120FEF73BFFBC4283
:101FF00006D9306820F4803030600020BDE8F087DA
:1020000030688003EFD5C4E7706840EA8A407060AA
:10201000012D0AD0706820F480307060306840F084
:102020008070306000240DE031E0706840F4803052
:102030007060F3E7641C0120FEF714FFBC4201D975
:102040000020DBE730688001F4D5706820F00300E1
:1020500040F0020070607068C0F381000228FAD17D
:10206000AFE7706820F0030040F0010070600024CA
:1020700007E0641C0120FEF7F5FEBC4201D90020F8
:10208000BCE77068C0F381000128F2D199E730689D
:1020900020F480303060B8F1000F03D1306820F0B8
:1020A0008070306000F02AF81249884208D9D9F8C7
:1020B000000020F0070040F03200C9F8000011E0F5
:1020C0000D49884208D9D9F8000020F0070040F0F7
:1020D0003100C9F8000005E0D9F8000020F0070041
:1020E000C9F80000012089E70010024090D00300E9
:1020F00000200240006CDC0200366E0100B500F0EA
:1021000031F80E4940B1012808D00D4A022807D005
:1021100003280CD0084600BD084600BD084600BD97
:102120005068C0F383400749801C484300BD506895
:10213000C0F383400149801C484300BD00127A006F
:102140000010024000093D00024901480860704744
:102150000400FA050CED00E001498868C968704781
:102160000800002009494868800800F003000028A2
:1021700006D0012806D04868C00305D50320704763
:102180000020704701207047022070470010024075
:102190004FF0E0210A6922F004020A610A6922F084
:1021A00004020A610A6942F002020A614FF4FA521B
:1021B000B0FBF2F04861086940F001000861704727
:1021C00010B5FEF74FF80A4A1178491C11700949F9
:1021D0008A68CB68521C43F100038A60CB60FEF72B
:1021E00045F8FFF783F9BDE81040FEF7BFBF0000D8
:1021F0007E00002008000020FEF7FCFF0A230E4AA4
:1022000000210E48FFF712F8034623B10CA2582113
:102210000E48FEF77DF80E49012008700D4D4FF471
:10222000FA764AF6AA240022334611461046FFF7F2
:102230002DF92C60F7E70000B4080020F919000818
:10224000534F434B45545F5461736B00D85500089E
:10225000080000200030004070B40E4B0E4A0124EC
:10226000198F00290DD0588F88420AD21588421C38
:1022700092B25A875E6B35548A4205D183F8314059
:1022800002E0108883F83C0083F8304070BC0320E3
:1022900000F02AB8B8080020044C004070B4104B7D
:1022A000104A0124B3F8481000290FD0B3F84A00AF
:1022B00088420BD29588421C92B2A3F84A205E6CE9
:1022C00035548A4205D183F8414002E0908883F872
:1022D0004C0083F8404070BC042000F005B80000BA
:1022E000B808002000500040042806D8034951F8DF
:1022F0002000018821F0200101807047BC530008B4
:102300002DE9F05F05468A469046734850F825400F
:10231000042D02D90020BDE8F09F01214020FEF7E6
:10232000AFFD6E4E6E4F4FF480694FF4006B052D7C
:102330007ED2DFE805F0031C354F68000121422002
:10234000FEF79EFD01214E20FEF79AFD0222032397
:1023500011023046FEF7ECFD0E231A464946304680
:10236000FEF7E6FD4E20FEF7BFFD252669E00121C0
:102370004220FEF785FD01219120FEF781FD032318
:10238000022204213046FEF7D3FD0E231A4608210F
:102390003046FEF7CDFD9120FEF7A6FD262650E043
:1023A00001214320FEF76CFD01219220FEF768FD1C
:1023B0004C4E0323022249463046FEF7B9FD0E2358
:1023C0001A4659463046FEF7B3FD9220FEF78CFDC3
:1023D000272636E001214420FEF752FD01219320FB
:1023E000FEF74EFD0323022249463846FEF7A0FDC4
:1023F0000E231A4659463846FEF79AFD9320FEF7FB
:1024000073FD34261DE001214420FEF739FD012132
:102410004520FEF735FD01219420FEF731FD022213
:102420000323D1023846FEF783FD0E231A4600E04F
:102430001DE004212C48FEF77BFD9420FEF754FD9F
:1024400035265146284600F03DF94FF40050A08152
:10245000A08940F00800A081A08940F00400A0817C
:102460004FF00009022D04D9A4F814900BE00020CD
:1024700051E78020A082184800221430211D50F816
:102480002500FEF78FFC00221146284600F05EF979
:102490002846FFF729FF1548B8F1000F00EB051794
:1024A00011D0022D0AD9A08940F02000A08101217D
:1024B0003046FEF729FE0120B8700AE0A08A40F0FD
:1024C0004000A08205E000213046FEF71DFE87F89F
:1024D000029001201FE70000BC53000800080140E3
:1024E00000100140000C014000140140B808002019
:1024F0002DE9F0412C4951F82040042851D82B4DAA
:1025000002462F15EE142A48052A4AD2DFE802F0C7
:1025100003111E2C390000230A224FF400712846B3
:10252000FEF706FD00230A2239462846FEF700FD85
:1025300033E000230A2204212846FEF7F9FC002399
:102540000A2208212846FEF7F3FC26E0194D002355
:102550000A2239462846FEF7EBFC00230A223146C0
:102560002846FEF7E5FC18E000230A223946054616
:10257000FEF7DEFC00230A2231462846FEF7D8FC8F
:102580000BE000230A224FF48051FEF7D1FC002318
:102590000A2204210848FEF7CBFCA08920F4005051
:1025A000A081BDE8F0810000BC5300080008014094
:1025B00000100140000C0140001401402DE9F041E1
:1025C0000446042C51D82A4D2A482F15EE14052C08
:1025D0004BD2DFE804F003101D2B38000222032346
:1025E00011022846FEF7A4FC0E231A463946284657
:1025F000FEF79EFC32E00323022204212846FEF768
:1026000097FC0E231A4608212846FEF791FC25E088
:10261000194D0323022239462846FEF789FC0E2372
:102620001A4631462846FEF783FC17E003230222B0
:1026300039460546FEF77CFC0E231A4631462846ED
:10264000FEF776FC0AE002220323D102FEF770FCBB
:102650000E231A4604210948FEF76AFC084850F880
:102660002400818941F400518181BDE8F08100009E
:102670000008014000100140000C0140001401401E
:10268000BC53000873B504460D4850F82400042CD0
:1026900007D8022C06D901880906FCD59DF804103C
:1026A00081807CBD064D0122143501A955F8240016
:1026B000FEF7C0FB55F82400FEF7C8FB7CBD000008
:1026C000BC5300082DE9F04107460C461E4850F85F
:1026D0002760FFF713FD80460FB14FEA58083846D0
:1026E000FFF706FF204602F0C9FB04460D464046B0
:1026F00002F0E0FC02F02AFC6FF0030202F0E9FDB8
:1027000022462B4602F062FA02F026FA04462046E0
:1027100002F0B0FC80B24FF6FF7101EA0011318186
:1027200002F0C8FC214602F023FD042102F0FFFD67
:1027300002F0A0FC318900F00F00084330813846D8
:10274000BDE8F041FFF73ABFBC530008F8B50E46AC
:102750001546042821D81149022801EB001408D994
:10276000FDF780FD2581666000216181FDF77EFD1A
:102770000BE00B490095002351F820202031121D59
:1027800051F820003146FEF72DFBFDF76BFD25814A
:102790006660BDE8F840FDF769BDF8BDB8080020E7
:1027A000BC5300080EB5022002F066F90446601C16
:1027B0000AD03EA0FDF7ACFD0125C026A8274FF0AA
:1027C000640840F2B44918E002F0C0F9014640A0A4
:1027D000FDF79EFD0023012219461846FEF756FE1E
:1027E000F8E702F0B3F9014641A0FDF791FD00239F
:1027F000012219461846FEF749FE8DF804608DF84F
:1028000005708DF806508DF80780ADF8089001A985
:10281000204601F07FF90028E3DB41F288394A467F
:102820000121204602F002F94FF47A72022120467B
:1028300002F0FCF88DF804608DF805708DF80650F4
:102840008DF80780ADF8089030A13248FDF76CFD97
:1028500005469DF8070000909DF806309DF805207C
:102860009DF804102CA0FDF753FD01AB2A46294921
:10287000204601F0FFFF002803DD2DA0FDF748FDF5
:1028800007E003D120A0FDF743FD02E02AA0FDF7F9
:102890003FFD9DF80700401C8DF807000022C8236B
:1028A00011461046FEF7F2FDCEE70000B3F5CABCB4
:1028B000BBAF736F636B6574B3C9B9A62CD7BCB1DA
:1028C000B8C1ACBDD3B7FECEF1C6F70D0A0000000B
:1028D000B3F5CABCBBAF736F636B6574CAA7B0DCDA
:1028E000A3ACB4EDCEF3A3BA25730D0A000000002B
:1028F000C1ACBDD3B7FECEF1C6F7CAA7B0DCA3AC5E
:10290000B4EDCEF3A3BA25730D0A000068656C6CB4
:102910006F00000090140020C9A8C3E8D6F7BBFAE6
:102920002025642E25642E25642E256420090000B0
:10293000B3C9B9A60D0A0000B7A2C9FAC1CBD2EC3F
:10294000B3A30D0A0000000030B4072906D8044CD8
:1029500013460222615C30BC00F0AFBD30BC704752
:102960000954000870B505460C46072C22D82146AC
:10297000284600F091FA142801D0172803D12146E7
:10298000284600F01FFA0C4800231A46015D28462D
:1029900000F093FDFF2221462846FFF7D5FF0022D5
:1029A0002146284600F0EEFC2146BDE8704003A019
:1029B000FDF7AEBC70BD000009540008C7BFD6C605
:1029C000B9D8B1D5736F636B65742025640D0A00A7
:1029D0002DE9F047DDE908A80646894617461D4659
:1029E0000024B9F1070F02D9FF20BDE8F087B8F144
:1029F000000F01D14FF001084946304600F04CFA73
:102A000030B149463046FFF7ADFFF16801208847F5
:102A10004946304600F0FCFC3A464946304600F054
:102A2000BFFC2A464946304600F090FC52464946D3
:102A3000304600F099FC01224946304600F06CFC1B
:102A40004946304600F028FA0546132D06D0F168B5
:102A500064208847641CE4B2282CF1D3132D0AD0DB
:102A60002A4649462AA0FDF753FC49463046FFF75F
:102A700079FF0120B9E704224946304600F04CFCBA
:102A8000002713E00024F168642088474946304657
:102A900000F002FA0546172D06D0F2686420904730
:102AA000641CE4B20A2CEED37F1CBFB24745E9D3C5
:102AB000172D0AD02A46494615A0FDF729FC49469C
:102AC0003046FFF74FFF02208FE740F2B4524946ED
:102AD000304600F073FC02224946304600F08AFC82
:102AE0004946304600F00CFB4946304600F026FBD4
:102AF000FF2249463046FFF727FF06224946304667
:102B000000F040FC49460DA0FDF702FC00206CE7F8
:102B1000BFAAC6F4736F636B6574202564CEAA5494
:102B20004350C4A3CABDB3ACCAB1A3ACB5B1C7B01E
:102B3000D7B4CCACA3BA25640D0A0000BFAAC6F472
:102B4000736F636B6574202564CEAA544350C4A38D
:102B5000CABDB3C9B9A6210D0A0000002DE9F04194
:102B600006460F4615460024072F02D9FF20BDE870
:102B7000F0813946304600F08FF930B139463046A1
:102B8000FFF7F0FEF168012088473946304600F033
:102B90003FFC2A463946304600F002FC0122394605
:102BA000304600F0B9FBF16802208847022239461E
:102BB000304600F0B1FB3946304600F06DF905466D
:102BC000142D06D0F26864209047641CE4B2282CCF
:102BD000F1D3142D0AD02A46394616A0FDF798FBEA
:102BE00039463046FFF7BEFE0120C0E740F2B4523E
:102BF0003946304600F0E2FB02223946304600F00A
:102C0000F9FB3946304600F07BFA3946304600F091
:102C100095FAFF2239463046FFF796FE07223946DD
:102C2000304600F0AFFB39460FA0FDF771FB0020E6
:102C30009DE70000BFAAC6F4736F636B657420251F
:102C400064CEAA544350B7FECEF14C495354454E7E
:102C5000B3ACCAB1A3ACB5B1C7B0D7B4CCACA3BA0E
:102C600025640D0A00000000BFAAC6F4736F636BF1
:102C70006574202564CEAA544350B7FECEF14C496A
:102C80005354454EB3C9B9A6210D0A002DE9F047AA
:102C9000DDE908A605460F46914698460024072F11
:102CA00002D9FF20BDE8F0873946284600F0F4F845
:102CB00030B139462846FFF755FEE96801208847BC
:102CC0002846022306B942232A4AD15D002200F099
:102CD000F4FB4A463946284600F062FB4246394634
:102CE000284600F033FB52463946284600F03CFBAC
:102CF00001223946284600F00FFB3946284600F0ED
:102D0000CBF80646222E06D0EA6864209047641C61
:102D1000E4B2282CF1D3222E0AD03246394616A02E
:102D2000FDF7F6FA39462846FFF71CFE0120B9E701
:102D30004FF4B8623946284600F040FB3946284631
:102D400000F0DEF93946284600F0F8F9FF2239464E
:102D50002846FFF7F9FD04223946284600F012FB09
:102D6000E9684FF44870884739460EA0FDF7D0FA5D
:102D7000002097E709540008BFAAC6F4736F636B7D
:102D80006574202564CEAA554450C4A3CABDB3AC13
:102D9000CAB1A3ACB5B1C7B0D7B4CCACA3BA2564A3
:102DA0000D0A0000BFAAC6F4736F636B657420251B
:102DB00064CEAA554450C4A3CABDB3C9B9A6210D57
:102DC0000A00000070B505460E46072E1AD81022DC
:102DD0003146284600F0A0FA0024EA680520904712
:102DE0003146284600F058F802461AB1641CE4B295
:102DF000142CF2D3002A05D03146BDE8704002A061
:102E0000FDF786BA70BD0000736F636B6574202593
:102E10006420B6CFBFAAC1ACBDD3B3ACCAB1A3AC1A
:102E2000D7B4CCACA3BA25640D0A000001480068F1
:102E3000C0B270472C012442072901D900207047F5
:102E4000024A515C202200F08FB9000009540008AA
:102E5000072901D900207047024A515C022200F084
:102E6000B7B9000009540008072901D900207047AC
:102E7000024A515C282200F077B90000095400088A
:102E8000072901D900207047024A515C262200F030
:102E90006BB9000009540008072901D900207047C8
:102EA000024A515C032200F093B900000954000863
:102EB000072901D900207047024A515C222200F004
:102EC00053B900000954000810B52E22002100F06B
:102ED0007FF900F0070010BD2DE9F047044608A86F
:102EE0000F4690E84303002C44D0EAB3E3B3D8B3D1
:102EF000D1B322606360A060E1603046FDF7C2FBA1
:102F0000C5B2102D00D910252A46314604F116000D
:102F1000FDF7D7FB00266019867584F8278084F8B2
:102F2000289038682061B888A082216801208847ED
:102F3000E1680220884718232E220021204600F055
:102F4000BCFA002280231146204600F0B6FAE16860
:102F5000022088470020211801F8296F0E72401CBA
:102F6000C0B20828F7D300E00CE02046BDE8F047E7
:102F700000F014B840F2E2310648FDF7C9F900202C
:102F8000BDE8F08740F2E7310348FDF7C1F90020C2
:102F9000F6E70000745600081C560008F8B5044611
:102FA000002520463922002100F012F90646042EA1
:102FB0000AD031463AA0FDF7ABF9E16864208847B2
:102FC0006D1CEDB2052DECD3042E05D0314641A089
:102FD000FDF79EF90020F8BD0721204600F032FAE7
:102FE000204604F11003062100910922002100F07F
:102FF00040FA002194F8270000B1102194F828002D
:1030000008B141F02001204600F09AF92046012342
:103010001322002100F021FA20464FF4FA6319220E
:10302000002100F01AFA204603231B22002100F0A1
:1030300044FA0025314E20460023072D03D8715D48
:10304000152200F03AFA20468023072D03D8715D3F
:10305000162200F032FA2046072D05D8715D4FF494
:1030600080432D2200F0F9F920460223072D03D8D2
:10307000715D1E2200F021FA20460223072D03D89D
:10308000715D1F2200F019FA6D1CEDB2082DD2D32C
:103090002046FF231822002100F00FFA0120F8BD7E
:1030A000BCECB2E25735353030CAA7B0DC2CB4EDF9
:1030B000CEF3B5C4B0E6B1BEBAC5CEAAA3BA3078D5
:1030C000253032582CD5FDD4DAD6D8CAD42E2E2E9F
:1030D0000D0A0000BCECB2E25735353030CAA7B05B
:1030E000DC2CB4EDCEF3B5C4B0E6B1BEBAC5CEAA01
:1030F000A3BA3078253032580D0A00000954000870
:1031000070B505460C462846072C01D9002004E07E
:10311000094A115D2A2200F027F802462146284676
:1031200000F05AF940222146284600F0F5F8E968F7
:10313000BDE87040012008470954000870B50446F6
:103140000D4629462046FFF7B3FE02462946204693
:1031500000F06AF920222946204600F0DDF8E168F7
:10316000BDE87040012008471CB50223009301AB65
:1031700000F00AF89DF804004FF6FF7101EA002103
:103180009DF8050008431CBD2DE9F0410546069F4A
:1031900014461E46C8064FEA106829680020884772
:1031A000A968200A8847A968E0B28847A96840460C
:1031B0008847002405E0A968FF2088473055641C33
:1031C000A4B2BC42F7D32968BDE8F041012008470A
:1031D00070B504461546C806060E216800208847CB
:1031E000A168280A8847A168E8B28847A1683046E4
:1031F0008847A168FF208847054621680120884745
:10320000284670BD2DE9F84307460D4690461C46FA
:10321000002C19D029463846FFF726FE06460B48F3
:1032200000944346415D32463846FFF7ADFF301902
:1032300082B22946384600F0CFF829463846BDE824
:10324000F843402200F068B8BDE8F883195400083C
:103250002DE9FE4F8146DDE90CB50E4692461C462F
:10326000002C13D0DFF8A480092C11D23146484637
:10327000FFF7FAFD0246009418F806105346484638
:10328000FFF782FF00202880BDE8FE8F0020FBE7CB
:1032900031464846FFF7E8FD07460820009018F839
:1032A000061001AB3A464846FFF76EFF0198CBF88F
:1032B00000009DF808004FF6FF7202EA00219DF819
:1032C0000900084328809DF80A0002EA00209DF8C2
:1032D0000B500543A4F10800854200DD85B207F1DB
:1032E000080082B2009518F8061053464846FFF7CA
:1032F0004BFF381982B23146484600F06DF8402243
:103300003146484600F008F82846BDE71954000841
:1033100001460120FEF7C0BD30B4072906D8044C91
:1033200013460122615C30BC00F0C7B830BC704766
:1033300009540008014908607047000098012442C0
:1033400001F07F030022114600F0B7B838B5072915
:1033500007D804240094034C13460C22615C00F04F
:1033600088F838BD0954000830B4072906D8044C41
:1033700013461022615C30BC00F06FB830BC70475F
:103380000954000830B4072906D8044C13462C22EF
:10339000615C30BC00F091B830BC70470954000843
:1033A00030B4072906D8044C13460422615C30BCB3
:1033B00000F053B830BC704709540008072907D8FB
:1033C00002B90122034B595C1346122200F045B8A2
:1033D000704700000954000830B4072906D8044C8F
:1033E00013462822615C30BC00F037B830BC70470F
:1033F0000954000830B4072906D8044C13462F227C
:10340000615C30BC00F059B830BC7047095400080A
:10341000072905D8034A2123515C002200F04DB84A
:10342000704700000954000830B4072906D8044C3E
:1034300013462422615C30BC00F00FB830BC7047EA
:103440000954000801F00701C90041F0800141F072
:1034500040032E22002100F030B81CB51C0A8DF864
:1034600004408DF805300223009301AB00F001F811
:103470001CBD2DE9F0410546069F14461E46C806B0
:10348000000E40F00408296800208847A968200A37
:103490008847A968E0B28847A96840468847002461
:1034A00004E0A968305D8847641CA4B2BC42F8D32C
:1034B0002968BDE8F041012008472DE9F0410446A4
:1034C00015461F46C806000E40F00406216800207D
:1034D0008847A168280A8847A168E8B28847A16898
:1034E00030468847A168384688472168BDE8F041E2
:1034F000012008472DE9F84307460E4690461C4632
:10350000002C08D031463846FFF796FC844204D997
:103510000320BDE8F883FF20FBE718223146384638
:10352000FFF712FA31463846FFF7C2FC05460A4853
:1035300000944346815D2A463846FFF79AFF2819D2
:1035400082B231463846FFF76FFF202231463846B7
:10355000FFF7E2FE0020DCE7115400082DE9F843F4
:103560000746DDE908590E4690461C46002C08D057
:1035700031463846FFF760FC844204D90320BDE899
:10358000F883FF20FBE7B9F1000F0AD04DB12A46BE
:1035900031463846FFF7DAFE4A4631463846FFF7ED
:1035A000E3FE182231463846FFF7CEF93146384659
:1035B000FFF77EFC05460A4800944346815D2A4693
:1035C0003846FFF756FF281982B231463846FFF7D2
:1035D0002BFF202231463846FFF79EFE0020CEE723
:1035E000115400082DE9F04188B0324F01263E7099
:1035F000E0213148FDF7AAF830484FF00008C0F844
:10360000A48101222E491046FEF750FB01214820DB
:10361000FDF736FC2B4C0323002240212046FDF70A
:1036200087FC00230A22E1142046FDF781FC0023D9
:10363000012219461846FDF729FF234C0C2120686A
:10364000FDF7C8F944218DF8181058218DF819108C
:10365000010A8DF81A108DF81B002068817A8DF808
:103660001C10C07A8DF81D0018A0FCF751FE002434
:1036700006AD1AA0295DFCF74BFE641CE4B2062CD3
:10368000F7D318A0FCF744FECDE9036816A01A4949
:10369000CDE9011019480090194B1A4A06A9B868DB
:1036A000FFF71AFC18B1002008B0BDE8F0814FF018
:1036B000FF30F9E72C0000207809002000002442A8
:1036C000FA5300080020014000000020B1BEBBFA00
:1036D0004D4143B5D8D6B73A0000000025303258E6
:1036E000000000000D0A00006370313330304031BB
:1036F00033392E636F6D00009917000811330008ED
:103700002D2E0008353300082DE9F0470646142019
:10371000B1FBF0F77F1C00242848C6EBC60100EB84
:103720008105DFF89C80E8680A282CD93046FDF72F
:1037300079F94FF0FF3908B100251FE04846BDE890
:10374000F087F1B2D8F80800FFF79AFB30B10022F9
:10375000022311461046FDF799FE27E000221423AC
:1037600011461046FDF792FE641CE4B20F2C04D9FA
:1037700000243046FDF756F918B16D1CBD42E0D368
:1037800014E04846DBE788B1F1B2D8F80800FFF74B
:1037900077FB58B9EA684FF47A70B2FBF0F100FB9E
:1037A0001123CAB200210846FDF770FEF1B2D8F825
:1037B0000800BDE8F047FFF763BB00007809002070
:1037C0002C0000202DE9F04706461420B1FBF0F74D
:1037D0007F1C00242C48C6EBC60100EB8100DFF8FB
:1037E000AC90C0684FF0FF380A282ED93046FDF75C
:1037F00019F908B1002523E04046BDE8F087F1B291
:10380000D9F80800FFF724FBC10601D50120F4E731
:10381000010701D54046F0E7800701D54046ECE7B7
:103820000022142311461046FDF730FE641CE4B25A
:103830000F2C04D900243046FDF7F4F818B16D1CA4
:10384000BD42DCD30DE04046D7E750B14FF47A7269
:10385000B0FBF2F102FB1103CAB200210846FDF7EA
:1038600015FEF1B2D9F80800FFF7F2FAC10601D54A
:103870000120C2E7010701D54046BEE7800701D518
:103880004046BAE74046B8E7780900202C000020FF
:1038900030380A2801D20120704700207047704755
:1038A0002DE9FE4304460E4600210291244D4FF0BF
:1038B000FF39082C04D323A068604846BDE8FE8386
:1038C0002348C4EBC40200EB82073976B8794FF085
:1038D000010838B101280BD0022812D01DA0686061
:1038E0004846EBE7B288E1B2A868FFF737F910E085
:1038F00000910191B288E1B202ABA868FFF7C6F966
:1039000007E0B288CDE90028E1B23346A868FFF7A6
:10391000BDF938B101280DD002280ED010A0686082
:103920004846CBE7B088B88287F818800EA0686058
:103930002046C3E70DA06860F2E710A06860EFE7DB
:103940002C000020736F636B6574CEDED0A721005E
:1039500078090020CEDED0A7B5C4D0ADD2E92100D1
:10396000CEB4D6AAB4EDCEF300000000B4F2BFAAE4
:10397000736F636B6574B4EDCEF30000B4F2BFAA4D
:10398000736F636B6574B3ACCAB100003EB51D4C78
:10399000D4F80700019041F28830ADF808004FF4E8
:1039A0007A72022194F9020001F040F801AB112271
:1039B00015A194F9020000F05DFF054600220221E6
:1039C00094F9020001F032F8B5B19DF807000090BB
:1039D0009DF806309DF805209DF804100FA0FCF717
:1039E00097FC00F07DFCE06900220123114610469F
:1039F000FDF74CFD00203EBD11A0FCF789FC012025
:103A00003EBD000038000020434845434B5F49500D
:103A10005F434F4E464C49435400000044484350D6
:103A2000B2E2CAD44950D2D1BEADB4E6D4DA212D27
:103A30003E25642E25642E25642E25640D0A000083
:103A40000D0A3E20436865636B206C656173656495
:103A5000204950202D204F4B0D0A000070B5012544
:103A6000194C002621466078097802281AD2D4E938
:103A70000720904226D2012904D0022905D004292A
:103A800008D105E000F0AAFC04E000F099FD01E097
:103A900000F096FDE661E0690A3020626078401C23
:103AA00060700FE0012904D0022905D0042907D154
:103AB00002E02670002503E000F090FC0120207059
:103AC00000F004FC284670BD3800002070B50446A4
:103AD0000B4D082C02D30BA0686070BDE1B2A86842
:103AE000FFF770F90A49C4EBC40001EB80001C2108
:103AF000FCF72CFEE1B2A868BDE87040FEF732BFCB
:103B00002C000020736F636B6574CEDED0A721009C
:103B1000780900202DE9FC4704460E462F4D4FF052
:103B2000FF39082C04D32EA068604846BDE8FC8706
:103B30002E48C4EBC40100EB81074FF0000A87F860
:103B400018A0B8794FF0010838B1012819D002281F
:103B500023D027A068604846E8E738694FF47A71B7
:103B6000B0FBF1F0401C1FFA80FAFDF7E3FE0246BD
:103B7000B088CDE9000AE1B23346A868FEF728FF15
:103B800016E0FDF7D7FE0246B088CDE9000AE1B2A3
:103B90003346A868FFF77AF80AE0FDF7CBFE024645
:103BA000B088CDE90008E1B23346A868FFF76EF8A7
:103BB00038B101280BD002280CD010A0686048460C
:103BC000B4E787F818800FA068602046AEE70EA023
:103BD0006860F4E710A06860F1E700002C000020A6
:103BE000736F636B6574CEDED0A721007809002067
:103BF000CEDED0A7B5C4D0ADD2E92100CEB4D6AACE
:103C0000B4EDCEF300000000B4F2BFAA736F636B93
:103C10006574B4EDCEF30000C1ACBDD3B3ACCAB192
:103C200000000000704770477047000010B5044660
:103C3000044A1178012903D1E1B25078FEF722FD40
:103C4000204610BD080000202DE9F04106460D4633
:103C50000B4FB8681630FCF715FDC4B2012D0DD915
:103C6000002E0BD06D1EAC4200DDECB2B9682246CE
:103C700016313046FCF725FD00203055BDE8F081B7
:103C80002C00002008B503460448806806210091F6
:103C900009220021FFF778FA08BD00002C0000205F
:103CA00010B5144A082803D313A05060002010BD9B
:103CB000012905D0022909D003290FD0002010BD09
:103CC000C1B29068BDE81040FFF7DAB8FCF7AAFE71
:103CD000012801D0002010BD012010BDC0EBC001A3
:103CE0000B4800EB8100017E09B1807910BD0020F6
:103CF00010BD00002C000020B7A2CBCDCAA7B0DCBD
:103D00003A736F636B6574CEDED0A72100000000AC
:103D10007809002070B540F6FF710720FDF7B0F973
:103D2000012106220846FEF70BF920B90C220121D9
:103D30000020FEF705F92A48002101700120FDF757
:103D4000BBF9FCF733FE01224FF4E1310020FEF70E
:103D5000D7FA24A0FCF7DCFAFDF7C2F929490120C3
:103D6000086029A0FCF7D4FA2BA0FCF7D1FAFEF7E3
:103D7000F9F9394951F8201038A0FCF7C9FAFEF7D3
:103D8000BDF9014639A0FCF7C3FA3DA0FCF7C0FA23
:103D900000243E4D2868015D3DA0FCF7B9FA641C83
:103DA000E4B20C2CF6D32BA0FCF7B2FA3A48FCF79D
:103DB000AFFAFCF757FA0446FDF7C0F90B23374A70
:103DC00000213748FDF732FA2046FCF74FFAFEF79C
:103DD00095F9FEF7DDF9FDF7F5F9002070BD00005B
:103DE0001C0000200D0A0D0A0D0A0D0A0D0A0D0A0D
:103DF0000D0A0D0AB3CCD0F2C6F4B6AF2E2E2E0D9E
:103E00000A0000008C0123420D0A0D0A0D0A0D0A5A
:103E10000D0A0D0A000000000D0A2A2A2A2A2A2A61
:103E20002A2A2A2A2A2A2A2A2A2A2A2A2A2A2A2AF2
:103E30002AC9E8B1B8B3CCD0F2D0C5CFA22A2A2A79
:103E40002A2A2A2A2A2A2A2A2A2A2A2A2A2A2A2AD2
:103E50002A2A2A2A0D0A0000AC530008CAB1D6D378
:103E6000C0B4D4B43A25730D0A000000CFB5CDB369
:103E7000CAB1D6D33A256C64487A0D0A0000000016
:103E8000435055CEA8D2BB49443A00000000002060
:103E9000253032580000000094550008B40400207A
:103EA000F92100082C4A0121906B01704170062114
:103EB00081700021C170536B1B0E0371536B1B0C7F
:103EC0004371938E1B0A837192F83430C371906BE7
:103ED000018180238372C172906B0173417381737E
:103EE000C173017441748174C17401754175817528
:103EF000C175017641768176C1763C3213780377BD
:103F00005378437793788377D378C377137980F89E
:103F10002030527980F82120062283181977521C0C
:103F2000D2B2102AF9D30022831883F82C10521C25
:103F3000D2B2402AF8D30022831883F86C10521CA6
:103F4000D2B2802AF8D3632100F8EC1F822242709B
:103F500053228270C17070473800002008B50346B4
:103F600004488068042100910F220021FFF781FAA4
:103F700008BD00002C00002008B5034604488068F6
:103F80000421009101220021FFF773FA08BD00000F
:103F90002C00002008B503460448806804210091E5
:103FA00005220021FFF765FA08BD00002C00002063
:103FB00070B586B000245C4D4FF4FA72012195F97A
:103FC000020000F033FD04AB4FF4097295F90200D2
:103FD000A96B00F0D9F886B2C6B1314653A0FCF700
:103FE00097F9BDF814009DF81310CDE90106009172
:103FF0009DF812309DF811209DF8101051A0FCF78B
:1040000087F9BDF81400432806D03FE059A0FCF71B
:104010007FF9002006B070BD4348AA6B3C30117F89
:104020000378994215D1517F4378994211D1917FFC
:10403000837899420DD1D17FC378994209D192F802
:1040400020100379994204D192F8211040798142DD
:1040500001D00020DEE7F0329019F03814E011783A
:10406000332946D007DCA9B1012918D0032922D071
:10407000062906D12EE035290ED0362947D0FF2952
:1040800006D05178921C0A448242E8D32046C1E708
:104090000246F9E7521CF7E79478D21CF4E722496C
:1040A00093780F310B70D3784B7013798B705379F1
:1040B000921DCB70E8E753781B4996780B310E7050
:1040C000D6784E7016798E705679921DCE701A443D
:1040D000121FD9E753781449967813310E70D678A9
:1040E0004E7016798E705679921DCE701A44121F3A
:1040F000CAE79178A961D37803EB0121A96113790B
:10410000921D03EB0121A9610A21A961BCE70649BF
:10411000937830310B70D3784B7013798B7053795F
:10412000921DCB70B0E7000038000020BDD3CAD587
:10413000B5BDCAFDBEDDA3ACB3A4B6C8A3BA2564A1
:104140000D0A000044484350206D65737361676534
:10415000203A2025642E25642E25642E25642825EA
:1041600064292025642072656365697665642E2064
:104170000D0A0000BDD3CAD5CAFDBEDDB3ACCAB1BD
:10418000A3A10D0A000000002DE9FC5F05468A4648
:1041900016461F46DFF8F8804FF0FF39082D05D38B
:1041A0003CA0C8F804004846BDE8FC9F3C48C5EB6D
:1041B000C50100EB810B9BF8180038B1DBF80C103F
:1041C00049B12846FFF7A0FA04460EE035A0C8F82A
:1041D00004004846E8E72846FCF724FC48B1E9B269
:1041E000D8F80800FEF74CFE0446002C03DC2046FD
:1041F000DAE74846D8E79BF8060040B1012833D0FB
:10420000022831D02CA0C8F804004846CCE7D8F8E2
:1042100008C0E8B23B46DFF8AC90072807D8042175
:10422000009119F800100C226046FEF7ADFFD8F897
:104230000830E8B2072801D9002005E019F800107D
:1042400010221846FEF790FFB880B44200D93446D9
:10425000A3B2E9B25246D8F80800FEF7D3FF1AA07D
:10426000C8F8040020469FE7A4F10800B04201D935
:1042700006F10804381DCDE90070A3B2E9B2524638
:10428000D8F80800FEF7E4FF0FA1C8F804108BE788
:104290002C000020736F636B6574CEDED0A7210005
:1042A00078090020736F636B6574C3BBD3D0B3F51B
:1042B000CABCBBAF21000000CEDED0A7B5C4D0ADD4
:1042C000D2E9210009540008000000000348002141
:1042D000C1610A220262417070470000380000206C
:1042E0003EB5FFF7DFFD36480021806BE93000F86E
:1042F000DF1C00F8DE1C3521C1710121017204228E
:10430000072142723D228272C172012101732C4940
:104310003C310A7842734A7882738A78C273CA78C9
:1043200002740A794274497981743221C17404217A
:1043300001752349C91D097841752149C91D49786D
:1043400081751F49C91D8978C1751D49C91DC97865
:1043500001763621417604218176194930310A7877
:10436000C2764A7802778A784277C9788177FF21C6
:10437000C177E9381D210022114C4FF49C7503E0F0
:10438000431883F8EC20491CA942F9DBFF208DF883
:1043900008008DF809008DF80A008DF80B0009A0BF
:1043A000FBF7B6FF029800904320ADF804006B467F
:1043B0004FF4097294F90200A16B00F05BFA3EBD64
:1043C000380000200D0A3E2053656E6420444843A7
:1043D000505F4445434C494E450D0A002DE9F043DA
:1043E00089B0112102A8FFF72FFCFFF75BFD5D48A4
:1043F0003521806B00F8F01F01250626457001224B
:10440000072182703D22C27001710121417155491D
:104410003C310978817153493C314A780C21C27191
:10442000504A3C32927802724E4A3C32D278427202
:104430004C4A3C320F27127982724A4A3C325279F6
:10444000C272017302A8FCF71DF9C2B2102A00D98A
:104450001022444C511C1220A36B83F8FD10002144
:104460000DF1080C0BE00346D4F838901CF80180DD
:104470004B44401C80B283F8EC80491C89B29142C5
:10448000F1D32022A36B411C184489B280F8EC20A0
:104490003722A36B481C194480B281F8EC20A26B30
:1044A000411C104489B280F8EC60A26B481C114496
:1044B00080B281F8EC500322A36B411C184489B2EE
:1044C00080F8EC20A26B481C114480B281F8EC60AB
:1044D000A26B411C104489B280F8EC703A22A36BA5
:1044E000481C194480B281F8EC203B22A36B411C8C
:1044F000184489B280F8EC20FF25A26B481C1144B7
:1045000080B281F8EC5000224FF49C76A16B04E05D
:104510000B1883F8EC20401C80B2B042F8D38DF821
:1045200004508DF805508DF806508DF807500EA0F8
:10453000FBF7EEFE019807904320ADF8200007AB93
:104540004FF4097294F90200A16B00F093F900286E
:1045500004DC40F2B1110AA0FBF7DAFE09B0BDE8B5
:10456000F0830000380000203E2053656E64204434
:104570004843505F444953434F5645520D0A00008B
:104580003C446562756746696C653A202E2E5C482E
:10459000617264776176655C57353530305C64688C
:1045A00063702E632C204C696E653A2025643E2092
:1045B00073656E64746FB4EDCEF30D0A00000000F5
:1045C0002DE9F04F89B0112101A8FFF73DFBFFF75E
:1045D00069FCA14CFF27E21D2078002602F1290585
:1045E00003283CD004283AD08DF820708DF8217033
:1045F0008DF822708DF82370A06B352100F8F01F24
:10460000012141704FF0030880F802803D214FF0F6
:104610000809C17007210171012141718E4B3C33A2
:104620001978817119464FF00C0C4978C1711946FF
:10463000897801721946C978417219464FF00F0AFC
:1046400009798172194691F805B0102180F80BB0F4
:10465000F0389DF823B0BBF1FF0F18D037E0A06B06
:104660008672C672117801735178417391788173A3
:10467000D178C17328788DF8200068788DF82100F2
:10468000A8788DF82200E8788DF82300B4E732216D
:1046900000F8FC1F0421417092F800B080F802B0CD
:1046A00092F801B080F803B092F802B080F804B03C
:1046B000D278427136228271C1712978017269788B
:1046C0004172A9788172EA781C21C272FC380844D0
:1046D0004A1C95B280F8ECC0681C82B2A06B2844DA
:1046E00080F8EC60002101AD08E09446D4F838B0C1
:1046F000521CDC4492B28CF8EC00491C685C002827
:10470000F3D1D8780009FCF70FFDD4F838C0551C58
:104710006244ADB282F8EC00D878FCF705FDD4F81D
:1047200038C06A1C654492B285F8EC00187900091B
:10473000FCF7FAFCD4F838C0551C6244ADB282F8DC
:10474000EC001879FCF7F0FCD4F838C06A1C65441A
:1047500092B285F8EC0058790009FCF7E5FCD4F832
:1047600038C0551C6244ADB282F8EC005879FCF7B1
:10477000DBFCA36B6A1C2B4492B283F8EC00881D0F
:10478000A36B511A194481F8E5003721A36B501C23
:104790001A4480B282F8EC10A26B411C104489B21A
:1047A00080F8EC900122A36B481C194480B281F878
:1047B000EC20A26B411C104489B280F8EC800622E8
:1047C000A36B481C194480B281F8EC20A26B411CF9
:1047D000104489B280F8ECA03A22A36B481C19441B
:1047E00080B281F8EC203B22A36B411C184489B2B3
:1047F00080F8EC201F22A36B481C194480B281F87A
:10480000EC202122A36B411C184489B280F8EC20D3
:10481000A26B481C114480B281F8EC704FF49C7379
:10482000A16B03E00A1882F8EC60401C9842F9DBA7
:104830000AA0FBF76DFD089806904320ADF81C0018
:1048400006AB4FF4097294F90200A16B00F012F864
:1048500009B0BDE8F08F0000380000203E2053650D
:104860006E6420444843505F524551554553540DA2
:104870000A0000002DE9FC470546894616469A467F
:104880003F4C4FF0FF38082D04D33EA060604046F7
:10489000BDE8FC873E48C5EBC50100EB8107387ECB
:1048A00070B14FF40060864200D90646B87958B11D
:1048B000012823D0022821D036A060604046E7E7D7
:1048C00037A060604046E3E7E9B2A068FEF7E4FA8B
:1048D000F97D012905D0172809D036A0606040462F
:1048E000D6E7142803D035A060604046D0E7B3B2C5
:1048F000E9B24A46A068FEF7FDFD13E0E9B2A06800
:10490000FEF7CAFA222803D02AA060604046BFE71B
:10491000BAF80400B3B2CDE900A0E9B24A46A068F3
:10492000FEF71CFE02281FD003DC50B1012804D181
:1049300016E003281CD0FF281ED025A0606040464A
:10494000A6E7B96841B12846FEF73CFF002803DA24
:1049500022A0606000209BE722A06060304697E7BD
:1049600021A06060404693E723A0606040468FE747
:1049700024A0606040468BE728A06060404687E73F
:104980002C000020736F636B6574CEDED0A721000E
:1049900078090020CEDED0A7B5C4D0ADD2E9210081
:1049A000736F636B6574C3BBD3D0B3F5CABCBBAFC5
:1049B00021000000CEB4C1ACBDD32100B7FECEF1C2
:1049C000B6CBCEB4C6F4B6AFBCE0BFD82100000071
:1049D000CEB4D6AAB4EDCEF321000000B7A2CBCD61
:1049E000B3ACCAB100000000CEDED0A7B5C42073BE
:1049F0006F636B6574210000C1ACBDD3B3ACCAB1A9
:104A000000000000B7A2CBCDC3A6BBF2CAFDBEDD3D
:104A1000B3ACB3F6B7B6CEA721000000B7C7B7A8AE
:104A2000B5C420736F636B6574210000082803D33D
:104A30000F490CA0486070470E4BC0EBC00003EB61
:104A4000800001290CD0022908D00329F3D14FF4AA
:104A50007A718A4200D20A460261704782607047CA
:104A6000C2607047736F636B6574CEDED0A72100A0
:104A70002C000020780900202DE9F04107461F4E48
:104A80004FF0FF32B06800280BD0307868B187B1A2
:104A9000012F0ED0022F0CD019A070601046BDE877
:104AA000F0811AA070601046F9E71BA070601046F4
:104AB000F5E700241C48C4EBC40100EB8101497EEA
:104AC00039B1641CE4B2082CF5D318A0706010460C
:104AD000E5E7C4EBC40100EB81051C212846FBF788
:104AE00035FE01206876AF710020A860E86042F2D0
:104AF0001070286114A0706060B2D0E72C00002014
:104B0000CEDED0A7B5C4D0ADD2E92100CEDED0A78D
:104B1000B5C4BEE4B1FA2100D3B2BCFECEB4B3F545
:104B2000CABCBBAF2100000078090020BBF1C8A1BE
:104B3000736F636B6574CAA7B0DCA3ACD7CAD4B477
:104B4000B2BBD7E32100000000000000014840682C
:104B5000704700002C00002021F00042A2F16052BA
:104B6000B2F5801F01F0004328BFD2F17F6C0BD952
:104B70005FEA001C43EAC20242EB507018BF704764
:104B800028BF20F001007047B2F5801FBCBF184657
:104B900070474FEA410C1CF5001F02D2084600F096
:104BA000E2BA70B500F07DF900000089FFF7F6BFAA
:104BB0004FF00040A0F580007047000002494FF020
:104BC000000000F054BB00BF0000F87F2DE9C04199
:104BD00030B4DFF8A0C23CEA111418BF3CEA131449
:104BE00000F0EC8081EA03051CEA111444EAD57454
:104BF00018BF1CEA131500F0C780A4EB05044FF0A2
:104C0000004545EAC12145EAC32341EA505143EA40
:104C1000525304F17F74994204F500344FEAC020E6
:104C20004FEAC22208BF904200F09C804FEA136511
:104C30000FF24016765D4FEA134506FB05F7C7F104
:104C4000807706FB07F74FEAD737A7FB0368764262
:104C5000C8F58038A7FB06CE38BFA8F1010807FBCE
:104C600008E64FF0000EA6FB028CE6FB03CEDCF15B
:104C7000000CCEF1004E38BFAEF1010EA6FB0C5871
:104C80004FF000074FF00005E6FB0E87A1FB08C6BA
:104C9000A0FB07CE16EB0E0645F10005E1FB07650C
:104CA00015F1E04E7EBFA4F580345FEA46066D4103
:104CB00016F1800745F100054FEA17274FEA06660F
:104CC00047EA0567A6F1DE46B6F1805F4FEA152593
:104CD0001FD9384624F0010C05EBC471BCF1FE6FFE
:104CE00001EB0C1102D8F0BCBDE8008124425CBF8E
:104CF00001F5801E9EEAC47F02D4F0BCBDE80081AD
:104D0000244238D4F0BCA1F1C041BDE8004100F01C
:104D100016B94FEAD22242EA43524FEAD323A7FB05
:104D200002864FEAD02040EA415007FB03661EEAA4
:104D30000E0F4FEAD12105FB026658BFA6EB0056C5
:104D4000B6EB00564FEA520E4EEAC37E18EB0E0E3B
:104D500056EB530EBDD518EB02085E417F1C55F192
:104D60000005B6E74FF480154FF000074FF000063E
:104D70004FF00008ADE7F0BC4FF0000001F1C0417A
:104D800001F00041BDE8008111EA0C1F0CEA131587
:104D900000D00CE013EA0C1F00F025804FF000005B
:104DA000F0BC81EA030101F00041BDE80081F0BCE4
:104DB00081EA0301BDE8004100F0C1B8F0BCBDE8E4
:104DC000004170B500F06DF8097EFC3E00F007B8B8
:104DD00081EA03014FF0000001F00041704781EAD1
:104DE000030100F0ACB8F0BC4FF000002249BDE870
:104DF00000417047FFFDFBF9F7F5F4F2F0EEEDEB43
:104E0000E9E8E6E4E3E1E0DEDDDBDAD8D7D5D4D3C8
:104E1000D1D0CFCDCCCBCAC8C7C6C5C4C2C1C0BF14
:104E2000BEBDBCBBBAB9B8B7B6B5B4B3B2B1B0AF1A
:104E3000AEADACABAAA9A8A8A7A6A5A4A3A3A2A1FE
:104E4000A09F9F9E9D9C9C9B9A99999897979695B9
:104E500095949393929191908F8F8E8E8D8C8C8B55
:104E60008B8A8989888887878685858484838382DD
:104E7000828181800000FF070000F87FB0FA80F394
:104E800010FA03F10AD0C3F11D0303F580634FEA62
:104E900041504FEA035202EBD12170474FF000001E
:104EA00070470EF1020E2EF0030E5EF8046B3642D0
:104EB00005D4012A43EB030515F5001F12D801287C
:104EC00041EB010C1CF5001F0CD80ED14FEAD17C30
:104ED00015F5001F0CEB4C0C0CF1020C08BF4CEB51
:104EE000D37C04E04FF0080C01E04FEAD37C0CEBDC
:104EF0004C0526FA05F606F00706B6F1040C06D2B4
:104F00000EEB860CBDE870404CF0010C6047DFE80A
:104F10000CF0090B02024FF000414FF00000A1F528
:104F2000002170BD19461046012851EB010418BF3D
:104F3000D4F5001484BF002001F0004170BD0808C2
:104F4000A0F500114FEA31017047000043004FEA1D
:104F5000D30C4FEA3C0C43401FBF40070CF160519B
:104F600013F0FE4F70471CF0006F03D100200CF0CF
:104F7000004170470CF0004343EA507010B540EA1E
:104F8000CC0000F0AAF800BF000000924FEA000138
:104F9000FFF7D5BF4FF000414FF00000A1F5002111
:104FA0007047000090EA010F48BF81F0004100F116
:104FB000F080421A3CBF801A89184FEAD0524FF055
:104FC0007F4C1CEA410FA2EBD15318BF9CEA026F41
:104FD00000F03B804FF0004C4CEA00204CEA0121ED
:104FE00021FA03FC10EB0C0C1ED202F1FF325FEA37
:104FF0001C2040EBC25038BF70471CF07F0F4FEAB7
:10500000400C18BFBCF17F4F38BF7047C3F120037D
:10501000994008BF20F00100BCF17F4F38BF7047B6
:10502000A0F1C04000F09FB84FEA3C00000A40EBFE
:10503000C25028BF1CF0FF0F4FEA400CE6D018BF4B
:10504000BCF17F4F38BF7047EAE79CEA026F05D09A
:1050500010EA5C0F08BF00F00040704710B500F088
:105060003CF800BF64FBBE3E014800F000B900BF41
:105070000000C07FC10DD1F19E0206DB4FEA002384
:1050800043F0004323FA02F07047004207D54FEA8D
:105090004001B1F1FE4F02D24FF00000704710B551
:1050A00000F01BF849922480002070476FEA20002E
:1050B00070470000B0FA80F310FA03F2C3F19D03C9
:1050C0000AD0D90501EB1220530638BF704700F112
:1050D000010008BF20F0010070470EF1020E2EF013
:1050E000030E5EF8044B244204D44FEA4102B2F1AD
:1050F0007F4F11D84FEA4003B3F17F4F0CD80ED148
:105100004FEAD07CB2F17F4F0CEB4C0C0CF1020C4F
:1051100008BF4CEBD17C04E04FF0080C01E04FEAF3
:10512000D17C0CEB4C0324FA03F404F00704B4F133
:10513000040C06D20EEB840CBDE810404CF0010CC0
:105140006047DFE80CF0070802024FF00040A0F5CE
:10515000800010BD0846420018BFD2F1807288BF9F
:1051600000F0004010BDFF2141EAD050C00570475B
:1051700080F0004090EA010F7FF51BAF81F0004105
:1051800000F007B890EA010F48BF81F000413FF5F9
:1051900010AF421A04D882F00042A0EB0200114482
:1051A0004FEAD0524FF07F4C1CEA410FA2EBD15393
:1051B00018BF9CEA026F4AD04FF0004C4CEA002026
:1051C0004CEA012121FA03FCB0EB0C0C0FD412F0D5
:1051D000FE0F36D05FEA4C001DD5001240EBC250E6
:1051E00038BF70471CF03F0F18BF70470BE0A2F1AB
:1051F00001025FEA1C2040EBC25038BF70471CF030
:105200007F0F18BF7047C3F12003994014BF401EA1
:1052100020F00100704780084FEA122308BF704752
:10522000B0FA80FCA2EB0C02CCF1280C60FA0CF076
:1052300093EA122F04BF00EBC25070474FEAC370CD
:105240007047130A5FEADC1008BF7047F6E79CEA74
:10525000026F04D010EA5C0F08BF0020704710B541
:10526000FFF73BFF40DFF63E81F0004070470CF057
:105270000F03092B08BF082000F07F800A2B0BD0FA
:10528000082B18BF704708BF1CF0400F0AD04FF022
:1052900000004FF0000170471CF0400F18BF4FF0A6
:1052A000004070471CF0100F08D020F0704300F051
:1052B0007F4242EAD3014FEA4370704700F06040FA
:1052C00021F07F4242EA000201F07F4040EA727022
:1052D00070474FF0FF0C4CF4E06C1CEA11531CBFFC
:1052E0009CEA030C9445C2BFDA4201EB02517047BD
:1052F000002B0DD0BCF1000F0FD0002A01F00041AF
:10530000A4BF41F0E04141F07F614FF000007047E1
:1053100001F000414FF00000704750EA01334FF0B8
:105320009B0C18BF4CF0806C7FF448AC70474FF07A
:10533000FF0212EAD0521CBF92F0FF038B42C2BFA1
:10534000D14200EBC1507047002A0AD0002B0BD08D
:10535000002900F00040A4BF40F0FE4040F40000EF
:10536000704700F00040704743024FF00B0C18BF2D
:105370004CF0806C7FF478AE70471CF4801F11D025
:105380001CF4E02F03D06FEACC31490070474FF096
:105390004050EFF3008222F0704242EA000282F3B2
:1053A000008870474FF00000704700006855000803
:1053B0005C55000884550008745500080038014009
:1053C0000044004000480040004C004000500040B5
:1053D00044000240800002401C000240580002408D
:1053E0006C0002403000024002000400080010007F
:1053F00020004000800000010002000000000100C9
:105400000000010000000000000105090D11151940
:105410001D02060A0E12161A1E03070B0F13171B86
:105420001F00000100020001000300010002000152
:10543000000400010002000100030001000200015D
:10544000000500010002000100030001000200014C
:10545000000400010002000100030001000200013D
:10546000000600010002000100030001000200012B
:10547000000400010002000100030001000200011D
:10548000000500010002000100030001000200010C
:1054900000040001000200010003000100020001FD
:1054A00000070001000200010003000100020001EA
:1054B00000040001000200010003000100020001DD
:1054C00000050001000200010003000100020001CC
:1054D00000040001000200010003000100020001BD
:1054E00000060001000200010003000100020001AB
:1054F000000400010002000100030001000200019D
:10550000000500010002000100030001000200018B
:10551000000400010002000100030001000200017C
:10552000003031323334353637383941424344451F
:1055300046403058003031323334353637383961EF
:105540006263646566403078000400000800000073
:10555000000000000200010000100000CDE2B2BF18
:10556000CAB1D6D348534500C4DAB2BFCAB1D6D304
:1055700048534900CDE2B2BFCAB1D6D34853452BF8
:10558000504C4C00CDE2B2BFCAB1D6D34853492BE0
:10559000504C4C000D0A2A2A2A2A2A2A2A2A2A2A68
:1055A0002A2A2A2A2A2A2A2A2A2A2A2A2A2A2A2A5B
:1055B0002A2A2A2A2A2A2A2A2A2A2A2A2A2A2A2A4B
:1055C0002A2A2A2A2A2A2A2A2A2A2A2A2A2A2A2A3B
:1055D0000D0A0D0A0D0A00003C44656275674669B4
:1055E0006C653A202E2E5C757365725C6D61696E18
:1055F0002E632C204C696E653A2025643E20C8CE6F
:10560000CEF120257320BDA8C1A2CAA7B0DCA3ACEF
:10561000B4EDCEF3A3BA25640D0A00003C446562E4
:10562000756746696C653A202E2E5C486172647716
:105630006176655C57353530305C57353530302E06
:10564000632C204C696E653A2025643E205B5735FB
:105650003530305D3ACEDED0A7B5C4CDA8D1B6BDC9
:10566000D3BFDAA3ACB3F5CABCBBAFCAA7B0DCA347
:10567000A10D0A003C446562756746696C653A2075
:105680002E2E5C48617264776176655C57353530E3
:10569000305C57353530302E632C204C696E653ABE
:1056A0002025643E205B57353530305D3ACEDED064
:1056B000A7B5C4BEE4B1FAA3ACB3F5CABCBBAFCACC
:1056C000A7B0DCA3A10D0A00000000003C44656205
:1056D000756746696C653A202E2E5C486172647766
:1056E0006176655C57353530305C646863702E6375
:1056F0002C204C696E653A2025643E20BDA8C1A2CD
:10570000C1B4BDD3B4EDCEF3204572726F723A25A9
:10571000730D0A003457000800000020B800000094
:105720006C010008EC570008B8000020203300008E
:1057300088010008E8F7FF1F0000000001000000DA
:105740000000000000000000000000000000000059
:10575000000000000030014000380040003C0040E4
:1057600000000000C85600083C09002000000000AE
:105770000000000000000000000000000000000029
:1057800000000000FFFFFFFF000000000A00000013
:10579000253C0008293C0008273C000800000000C8
:1057A00000000000000000000000000000000000F9
:1057B00000000000000000000000000000000000E9
:1057C00000000000000000000000000000000000D9
:1057D00000000000000000000000000000000000C9
:0C57E000000000000000000000000000BD
:0400000508000131BD
:00000001FF
